:1000000010C100003FC100003DC100003BC1000025
:1000100039C1000037C1000035C1000033C1000004
:1000200031C100002FC100002DC100002BC1000014
:1000300029C1000027C1000025C1000023C1000024
:1000400021C100001FC100001DC100001BC1000034
:1000500019C1000017C1000015C1000012C3000043
:1000600011C100000C94820E0C94580E0BC10000BC
:1000700009C1000007C1000005C1000003C1000064
:1000800001C10000FFC00000FDC00000FBC0000077
:10009000F9C00000F7C00000F5C00000F3C0000088
:1000A000F1C00000EFC00000EDC00000EBC0000098
:1000B000E9C00000E7C00000E5C00000E3C00000A8
:1000C000E1C00000DFC00000DDC00000DBC00000B8
:1000D000D9C00000D7C00000D5C00000D3C00000C8
:1000E000D1C00000AE02B102A002A402A802E80240
:1000F000B502B902BF02C302C702CD02D102D502C6
:10010000E802DB02DF02E3027C3C3E5E2B3D3F2F38
:100110005B5D3B2C2A225C0000000A0B02090C0DDF
:100120000E080703040100000000000000000000AA
:1001300000000000000000000000000000000000BF
:10014000000000001211100000000000000000007C
:10015000000000000000000000000000000000009F
:100160002200250028002B002E003100340002015F
:100170000000050108010B010000210024002700F8
:100180002A002D00300033000101000004010701A6
:100190000A0105050505070508080808020202020C
:1001A0000A0A080804040404010101010101010113
:1001B0000303030303030303040707070C0C0C0CDE
:1001C0000C0C0C0C020202020606060606060606C7
:1001D0000B0B0B0B0B0B0B0B010210202008081054
:1001E00020401020408002010201080402010102A7
:1001F0000408102040808040201008040201800480
:1002000002018040201008040201080402010102DA
:100210000408102040800102040810204080771656
:10022000D81311241FBECFEFD1E2DEBFCDBF00E057
:100230000CBF26E0A6E8B3E001C01D92AE3DB207B8
:10024000E1F713E0A0E0B2E0E4E8F2E300E00BBF86
:1002500002C007900D92A638B107D9F711E0C0E1AE
:10026000D1E000E006C021970109802FFE010E9425
:10027000F816CF30D10780E00807A9F70E94E713EE
:100280000C943119BDCEFC01918D828D981731F0FF
:10029000828DE80FF11D858D90E008958FEF9FEF1F
:1002A0000895FC01918D228D892F90E0805C9F4FF5
:1002B000821B91098F739927089580E090E0892B24
:1002C00021F00E94DF0D811125C080E090E0892B94
:1002D00041F080E090E0892B21F00E940000811124
:1002E0001CC080E090E0892B41F080E090E0892BF9
:1002F00021F00E940000811113C080E090E0892B62
:10030000A1F080E090E0892B81F00E940000811133
:100310000AC008950E940000D8CF0E940000E1CFDB
:100320000E940000EACF0C94000008953FB7F894B3
:100330008091920390919303A0919403B0919503BF
:1003400026B5A89B05C02F3F19F00196A11DB11D30
:100350003FBFBA2FA92F982F8827820F911DA11D6B
:10036000B11DBC01CD0142E0660F771F881F991FA8
:100370004A95D1F70895DC015996ED91FC915A9771
:100380003097B9F083899489A589B68942855385C8
:1003900064857585841B950BA60BB70B811520E82A
:1003A0009207A105B10538F08FEF9FE7A0E0B0E01C
:1003B000089580E090E00895CF93DF931F92CDB72A
:1003C000DEB76983DC01ED91FC910280F381E02DC1
:1003D00041E050E0BE016F5F7F4F19950F90DF91B4
:1003E000CF910895089580E090E008950E9401194A
:1003F0001F93CF93DF93EC0180E2689FF0011124FB
:10040000E656FC4F9385917129F0842F827411F088
:1004100080E04FC0142F6A8B8091000290910102FE
:10042000A0910202B09103028E879F87A88BB98B9F
:100430004489558960E070E0BA0155274427828DD0
:10044000938DA0E0B0E0482B592B6A2B7B2B4F8B70
:10045000588F698F7A8F8385887151F4848D958D3B
:10046000A68DB78D8B8B9C8BAD8BBE8B81E00CC02A
:10047000803171F69E012D5E3F4F8B8D9C8D0E94C9
:10048000850F882329F284E08D83812F8F708C83E0
:100490001E821F82188619861A861B861C861D8658
:1004A00016FF06C0CE01DF91CF911F910C94F90E7B
:1004B00081E0DF91CF911F910895FC01848DDF01D0
:1004C000A80FB11DA35ABF4F2C91848D90E00196C7
:1004D0008F739927848FA689B7892C93A089B189B6
:1004E0008C91837080648C93938D848D981306C057
:1004F0000288F389E02D80818F7D80830895362FD7
:1005000090E0FC01E85EFE4F4491FC01E852FE4F92
:100510002491FC01EE56FE4F9491992309F46CC08E
:10052000442309F455C050E0FA013197E231F10556
:1005300008F04EC08827EE58FF4F8F4F0C94F816E6
:10054000809180008F7707C0809180008F7D03C0ED
:1005500080918000877F809380003AC084B58F7738
:1005600002C084B58F7D84BD33C08091B0008F7789
:1005700003C08091B0008F7D8093B00029C080912E
:1005800090008F7707C0809190008F7D03C080918D
:100590009000877F809390001BC08091A0008F7790
:1005A00007C08091A0008F7D03C08091A000877F4D
:1005B0008093A0000DC0809120018F7707C08091AB
:1005C00020018F7D03C080912001877F80932001CF
:1005D000E92FF0E0EE0FFF1FE25AFE4FA591B49114
:1005E0009FB7F894311104C08C912095282302C044
:1005F000EC912E2B2C939FBF08958F929F92AF92D8
:10060000BF92CF92DF92EF92FF926B017C018EDE60
:100610004B015C01C114D104E104F104E9F086DE70
:10062000DC01CB0188199909AA09BB09883E9340CE
:10063000A105B10578F321E0C21AD108E108F1085B
:1006400088EE880E83E0981EA11CB11CC114D10451
:10065000E104F10421F7DECFFF90EF90DF90CF901F
:10066000BF90AF909F908F9008952FB7F8946091AE
:100670008E0370918F0380919003909191032FBF0F
:1006800008951F920F920FB60F9211242F933F934C
:100690008F939F93AF93BF9380918E0390918F031D
:1006A000A0919003B091910330918D0323E0230F2B
:1006B0002D3720F40196A11DB11D05C026E8230F9A
:1006C0000296A11DB11D20938D0380938E039093FC
:1006D0008F03A0939003B093910380919203909124
:1006E0009303A0919403B09195030196A11DB11DB0
:1006F0008093920390939303A0939403B0939503F4
:10070000BF91AF919F918F913F912F910F900FBE0D
:100710000F901F9018958FB7F894809187038FBF23
:10072000089561E0FC018481EADE809186038111F5
:100730001092860308958EBD00000DB407FEFDCF14
:100740008EB508958FEFF7CF0F931F93CF93DF935D
:10075000EB018BDF8B01F6DF8F3F41F086DF601B03
:10076000710B6C177D07B8F380E001C081E0DF9169
:10077000CF911F910F910895CF93DF93EC018E815C
:10078000882379F08F8198859C012F5F3F4F3887B0
:100790002F838230924010F4D5DFF4CFCE01C1DF39
:1007A0001E82DF91CF9108958CBD9DBD0895CF939A
:1007B000DF93EC0180918603811108C081E0809372
:1007C000860380917D0690917E06EEDF60E08C814D
:1007D000DF91CF9194CE8F929F92AF92BF92FF9272
:1007E0000F931F93CF93DF93EC01F62E49015A012B
:1007F000C3DFCE01DCDF6CE271E0CE01A5DF8F2D1F
:10080000806499DF08E110E0D501C401002E04C026
:10081000B695A795979587950A94D2F78CDF0850DF
:100820001109083F8FEF180779F7FF2029F088E0BA
:10083000F81204C087E803C085E901C08FEF7BDFB1
:1008400010E080DF8A8787FF04C01F3F11F01F5F21
:10085000F8CFDF91CF911F910F91FF90BF90AF9094
:100860009F908F900895AF92BF92CF92DF92EF92B8
:10087000FF920F931F93CF93DF93EC016901C8019F
:10088000820F931F8130924008F068C08E818823C8
:1008900071F088819981AA81BB8184179507A60789
:1008A000B70729F48F819885C816D90688F548833B
:1008B00059836A837B838B85833039F089E0440FC9
:1008C000551F661F771F8A95D1F79A01AB0161E129
:1008D000CE0181DF882319F083E08D833FC0C5DE20
:1008E0005B0130DF8A878F3F41F4BFDE6A197B09E5
:1008F0006D327140B0F38FE003C08E3F29F08DE080
:100900008D83CE010EDF2AC018861F8281E08E8380
:100910008F8198858C159D0538F414DF8F8198851B
:10092000019698878F83F4CF6701E00EF11EEC14D7
:10093000FD0429F007DFF60181936F01F8CF8F8165
:100940009885080F191F18870F838985882319F048
:100950000115124038F0CE010FDF04C0CE01E1DEF8
:1009600080E001C081E0DF91CF911F910F91FF9056
:10097000EF90DF90CF90BF90AF900895EF92FF92ED
:100980000F931F93CF93DF93EC017901411551052C
:100990006105710511F482E134C08B85833039F033
:1009A00089E0440F551F661F771F8A95D1F79A017A
:1009B000AB0168E1CE010FDF882311F084E021C094
:1009C0008EEFB9DE87018EEFF81AF80181918F0161
:1009D000B2DEE016F106C9F78FEFADDE8FEFABDECA
:1009E000B1DE8A878F71853029F081E18D83CE0158
:1009F00098DE08C068E572E0CE01A6DE811106C06F
:100A000085E18D83CE018DDE80E011C020E030E0F5
:100A1000A9016DE0CE01DFDE811107C093DE8111F7
:100A200004C0CE017EDE81E002C084E1EACFDF9126
:100A3000CF911F910F91FF90EF90089580918803BF
:100A4000882399F1409100025091010260910202C5
:100A5000709103022AE933E0809198039091990301
:100A60008DDF811102C080E008954091890350918B
:100A70008A0360918B0370918C03411551056105C8
:100A8000710589F02AE933E08091980390919903E8
:100A900075DF882341F31092890310928A03109224
:100AA0008B0310928C031092880381E008958F923B
:100AB0009F92AF92BF92EF92FF920F931F93CF93AB
:100AC0004B015C01C42F8091000290910102A09122
:100AD0000202B091030288159905AA05BB05F1F041
:100AE000ADDF811102C080E01FC08AE9E82E83E0FB
:100AF000F82E00E012E020E030E0B501A401809182
:100B0000980390919903AFDE882369F380920002E5
:100B100090920102A0920202B09203028091880397
:100B2000C82BC093880381E0CF911F910F91FF9054
:100B3000EF90BF90AF909F908F9008954F925F92EB
:100B40006F927F928F929F92AF92BF92CF92DF92DD
:100B5000EF92FF920F931F93CF93DF93EC014230FC
:100B600051056105710510F480E077C089859A858B
:100B7000AB85BC850196A11DB11D84179507A607FD
:100B8000B70790F3CB88DC88ED88FE888F898031A9
:100B900029F4BB27A72F962F852F09C0DB01CA0197
:100BA000E7E0B695A79597958795EA95D1F748011F
:100BB00059012A013B01C80ED91EEA1EFB1E809175
:100BC000000290910102A0910202B0910302C816A6
:100BD000D906EA06FB0681F48F898031A1F4B301BE
:100BE000A201552766277727440F551FFA01E656BD
:100BF000FC4F9182808218C040E0C701B60157DFE8
:100C00008111EACFB1CFB301A2014F7755276627F3
:100C10007727440F551F440F551FFA01E656FC4F26
:100C200080829182A282B3828091880381608093C6
:100C300088038A89823080F08D819E81AF81B8855A
:100C4000C80ED91EEA1EFB1EC0928903D0928A03E9
:100C5000E0928B03F0928C0381E0DF91CF911F91A2
:100C60000F91FF90EF90DF90CF90BF90AF909F904B
:100C70008F907F906F905F904F9008958F929F928A
:100C8000AF92BF92CF92DF92EF92FF920F931F939A
:100C9000CF93DF93FC0181859285A385B48501966E
:100CA000A11DB11D84179507A607B70710F480E0B2
:100CB0005AC083889488A588B6888789803129F4AA
:100CC000BB27A72F962F852F09C0DB01CA01C7E0DC
:100CD000B695A79597958795CA95D1F7E9016A01C9
:100CE0007B018F01BC01CD01680D791D8A1D9B1D03
:100CF0008090000290900102A0900202B090030246
:100D0000681579058A059B0591F4F801878980317A
:100D100099F4DD24EE24FF24C601880F991FFC01FD
:100D2000E656FC4F80819181A0E0B0E017C040E022
:100D3000BEDE8111EACFBBCFE894C7F8DD24EE24F4
:100D4000FF24C601880F991F880F991FFC01E656E2
:100D5000FC4F80819181A281B381BF708883998388
:100D6000AA83BB8381E0DF91CF911F910F91FF9008
:100D7000EF90DF90CF90BF90AF909F908F900895AD
:100D80008F929F92AF92BF92CF92DF92EF92FF929B
:100D90000F931F93CF93DF93EC018D81811102C0DC
:100DA00080E077C00B891C892D893E8904171507BF
:100DB00026073707A8F36A017B01823029F4CA8627
:100DC000DB86EC86FD860DC0C114D104E104F1047C
:100DD00051F41E821F82188619861A861B861C866D
:100DE0001D8681E056C08A849B84AC84BD84EB8DD3
:100DF000FC8D258530E0275F3F4FB501A4014150B0
:100E0000510961097109022E04C0769567955795BD
:100E100047950A94D2F7D701C6010197A109B109F4
:100E200004C0B695A795979587952A95D2F784170C
:100E30009507A607B70720F089288A288B2871F420
:100E40004F89588D698D7A8D4E835F836887798746
:100E50004C015D018E010A5F1F4F15C0841B950B6D
:100E6000A60BB70BF5CF4E815F8168857985980118
:100E70008B8D9C8D03DF91E0891A9108A108B10840
:100E8000882309F48DCF81149104A104B10459F78A
:100E900096CFDF91CF911F910F91FF90EF90DF9050
:100EA000CF90BF90AF909F908F9008953F924F92B8
:100EB0005F926F927F928F929F92AF92BF92CF92EA
:100EC000DF92EF92FF920F931F93CF93DF93CDB7F3
:100ED000DEB72C970FB6F894DEBF0FBECDBF5C0116
:100EE000DC015B968D909C905C971696CD90DD9082
:100EF000ED90FC901997C114D104E104F10439F08C
:100F0000BFEFCB1ADB0AEB0AFB0A312C07C0F40156
:100F1000C080D180E280F38033243394F401818552
:100F20009285A385B4859C01AD012F5F3F4F4F4F44
:100F30005F4F29873A874B875C87260137011D82DF
:100F40001E821F821886F40181859285A385B4854F
:100F50002D813E814F815885281739074A075B0745
:100F600008F060C089859A85AB85BC858C159D0588
:100F7000AE05BF0550F482E0C82ED12CE12CF12C37
:100F800092E0492E512C612C712C9E012F5F3F4F16
:100F9000B701A601C40172DE882309F443C0898128
:100FA0009A81AB81BC81892B8A2B8B2B41F0260146
:100FB00037019FEF491A590A690A790A05C0C41412
:100FC000D504E604F70491F02D813E814F815885C8
:100FD0002F5F3F4F4F4F5F4F2D833E834F83588787
:100FE0003FEFC31AD30AE30AF30AADCF0FEF1FEFA7
:100FF0002FEF3FE0B301A201C401A0DD882391F0EF
:10100000D50116964D915D916D917C911997411581
:1010100051056105710541F093018201C4018EDD26
:10102000811102C080E02AC0D50116964D925D92D2
:101030006D927C921997332051F0D301C201019631
:10104000A11DB11DF40180839183A283B383F501B7
:101050008789908DA18DB28D892B8A2B8B2B69F47A
:10106000D50157964D925D926D927C925A97149647
:101070008C911497806814968C9381E02C960FB60F
:10108000F894DEBF0FBECDBFDF91CF911F910F91BE
:10109000FF90EF90DF90CF90BF90AF909F908F9098
:1010A0007F906F905F904F903F9008954F925F9226
:1010B0006F927F92AF92BF92CF92DF92EF92FF92A8
:1010C0000F931F93CF93DF931F92CDB7DEB7FC0131
:1010D0002581222309F4BEC0848180FFBBC083899F
:1010E0009489A589B689428453846484758484155F
:1010F0009505A605B70509F4ADC06F015201F1E0F1
:10110000BF22D6015B968D919C915C97B301A201A1
:1011100039E076956795579547953A95D1F72230FE
:1011200071F4FC01828D938DA48DB58D8A019B0194
:10113000080F191F2A1F3B1FC901B80149C0DC0154
:1011400014961C9111501423A114B104F1F411113F
:101150001CC045284628472851F4F6018789908D00
:10116000A18DB28D86839783A087B1870EC0D601EB
:1011700016964D915D916D917C91199796012A5F1C
:101180003F4F7CDD882309F465C0F601238D348D43
:1011900086819781A085B1850297A109B109AC012B
:1011A000BD01F901058404C0440F551F661F771F58
:1011B0000A94D2F786859785A089B189840F951FF7
:1011C000A61FB71FBC01CD01610F711D811D911DAF
:1011D000D60114962C9126FF0DC04090000250902D
:1011E00001026090020270900302461657066806DC
:1011F000790691F440E05BDC882361F1F501E65665
:10120000FC4FDE0111969F012F5F3F4F2E173F07C6
:1012100091F081918D93FACFFE0131967F0101E02B
:1012200010E09501AB01BC01809198039091990366
:101230001ADB882379F0F60182859385A485B5852C
:101240000196A11DB11D82879387A487B5878981E7
:1012500090E002C08FEF9FEF0F90DF91CF911F9131
:101260000F91FF90EF90DF90CF90BF90AF907F9065
:101270006F905F904F900895FC01818D928D009743
:1012800009F014CF8FEF9FEF08950F931F93CF9323
:10129000DF93FC01818D928D0097A9F0EF0106DFAD
:1012A0008C010F3F8FEF180789F0898D9A8DFC0113
:1012B00042855385648575854150510961097109DD
:1012C0005FDDC80105C080E090E002C08FEF9FEFB6
:1012D000DF91CF911F910F910895CF93DF93EC0190
:1012E0008D81882309F18C8187FF1BC0CE0168D5D1
:1012F000FC01892BC9F08D81823040F48B899C8957
:10130000AD89BE89848F958FA68FB78F8F89988D71
:10131000A98DBA8D938F828FB58BA48B8C818F779B
:101320008C83DF91CF918ACB80E0DF91CF910895BC
:10133000CF93DF93EC01D1DF882311F01D8281E090
:10134000DF91CF910895FC01818D928D009709F076
:10135000C4CF08952F923F924F925F926F927F92E7
:101360008F929F92AF92BF92CF92DF92EF92FF92B5
:101370000F931F93CF93DF93CDB7DEB72C970FB6A4
:10138000F894DEBF0FBECDBF7C01DC0115962C901A
:10139000211068C1FE013196CE010C966F0130E23A
:1013A00031938E179F07E1F7DA0130E087E09D91D6
:1013B000992331F19E3231F48A3009F458C138E072
:1013C0008AE0F5CFE8E0F1E04491442321F0319642
:1013D0009413FACF4CC1831708F449C14FED490F5C
:1013E0004E3508F044C141E0430FF601E30FF11D13
:1013F0003FE9390F3A3108F490529083342FD7CF18
:101400008981803209F433C12C878B01FB01838DE4
:10141000948DD7015C969C938E935B97168217826E
:10142000108611861286138614861586B12CF80153
:1014300082859385A485B585438954896589768994
:1014400084179507A607B70708F05AC025E0B69598
:10145000A795979587952A95D1F7F82FFF70AF2E0E
:10146000D80115968C91823008F401C1C8011EDEA6
:1014700097FDFDC0F80182859385A485B5854F96BB
:10148000A11DB11D82879387A487B587F0E2AF9E27
:10149000B001112466567C4F6115710509F4E7C04F
:1014A000DB018C91882319F0853EC1F4DDC0B110B9
:1014B0000EC0F701A28A8091000290910102A091D2
:1014C0000202B091030286879787A08BB18BDB0164
:1014D0008C91882399F0BB24B394A9CF4BE050E0C2
:1014E000C6010E940519892B09F0A1CF8C85807354
:1014F000803309F4BCC04C856A2DAFC0BB24B394C3
:101500008C858271823109F0B2C0BB2031F0C701F5
:1015100057D4009709F076C0AAC0F80185818230BF
:1015200009F4A5C0C801C2DC882309F4A0C0D80111
:101530005B96ED91FC915C9716968D909D90AD9089
:10154000BC901997B2E08B1A9108A108B1080584E4
:1015500004C0880C991CAA1CBB1C0A94D2F786856F
:101560009785A089B189880E991EAA1EBB1E34805A
:10157000E1E08E1A9108A108B108332001F124019D
:101580003501430C511C611C711C58DA882309F485
:101590006EC0EAE9F3E0119225E0EA39F207D9F7E3
:1015A0004092000250920102609202027092030285
:1015B000809188038160809388033A94DECFD801BC
:1015C0005B96ED91FC915C9780E092E0A0E0B0E04A
:1015D000058404C0880F991FAA1FBB1F0A94D2F765
:1015E000F8014389548965897689840F951FA61F60
:1015F000B71F838B948BA58BB68BD70152961C9209
:101600008AE993E020E2FC0111922A95E9F72BE0A8
:10161000F601DC0101900D922A95E1F721E238E212
:10162000DC0151963C932E93509740E058E01F9672
:101630005C934E931E9753963C932E9352975996D4
:101640003C932E93589757965C934E935697F6D9A2
:10165000882369F04C85F7016289C7010E94F8016F
:10166000282E05C0212C03C0B11035CF22CF822DEA
:101670002C960FB6F894DEBF0FBECDBFDF91CF9191
:101680001F910F91FF90EF90DF90CF90BF90AF90A0
:101690009F908F907F906F905F904F903F902F9092
:1016A00008951F93CF93DF93CDB7DEB76D970FB635
:1016B000F894DEBF0FBECDBFAB011C821B8224E4B9
:1016C00032E03A8329831E8221E0BC01CE010196DB
:1016D00041DE11E0811102C010E003C0CE0101968D
:1016E00027DE812F6D960FB6F894DEBF0FBECDBFFB
:1016F000DF91CF911F910895CF93DF93CDB7DEB7E0
:101700006D970FB6F894DEBF0FBECDBF442331F105
:10171000AB01BC011C821B8284E492E09A83898322
:101720001E8222E0CE01019615DE811102C090E0FA
:1017300010C0CE0101965DD38823C9F3CE01019676
:101740003FD30097A1F325EEFC0120831E8276D9BA
:10175000982F81E0911103C080E001C081E06D9677
:101760000FB6F894DEBF0FBECDBFDF91CF910895C5
:101770002F923F924F925F926F927F928F929F92A1
:10178000AF92BF92CF92DF92EF92FF920F931F938F
:10179000CF93DF9300D01F92CDB7DEB78C015B01F2
:1017A0001A01DC0115968C9115978130C1F41496BD
:1017B0008C9181FF14C082FF1CC0F80143895489B9
:1017C0006589768982859385A485B5858417950773
:1017D000A607B70771F0C801D3DA81110AC081E00A
:1017E00090E0D80113969C938E93129780E090E03E
:1017F00030C1610182C05B968D919C915C97FC0128
:1018000074802FEF270D2A013B0139E0769467940D
:10181000579447943A95D1F7722E74207A01F1E0EB
:10182000FF22772009F475C080E092E08E199F09AD
:1018300046018C159D0508F44C01D8015B962D914D
:101840003C915C9716968D919D910D90BC91A02D29
:101850000297A109B109F901058404C0880F991FF5
:10186000AA1FBB1F0A94D2F74685578560897189E4
:10187000840F951FA61FB71F9C01AD01270D311DB9
:10188000411D511D29013A01811432E0930609F0EE
:1018900085C08091000290910102A0910202B09156
:1018A0000302481659066A067B0659F48FEF9FEF2C
:1018B000DC018093000290930102A0930202B09396
:1018C00003029501B301A2018091980390919903BD
:1018D00055D8882309F483CF9EEFB91AC818D908C0
:1018E000F80182859385A485B585880D991DA11D74
:1018F000B11D82879387A487B587D8011A964D9129
:101900005D916D917C911D97C114D10409F073CF45
:1019100083C0E114F10409F087CF16964D915D91D3
:101920006D917C911997411551056105710559F427
:1019300057968D919D910D90BC91A02D0097A1057A
:10194000B10531F520C09E012F5F3F4F97D9882305
:1019500009F44DCF89819A81AB81BC81F801238D37
:10196000348DF9012789203129F048EF5FEF6FEFBF
:101970007FE004C048EF5FEF60E070E084179507F8
:10198000A607B70728F0C80191DA81114DCF27CFFC
:10199000F80186839783A087B18746CFE114F104CD
:1019A00021F5D8011A964D915D916D917C911D970D
:1019B00053968D919D910D90BC91A02D481759077C
:1019C0006A077B0790F03AD8882309F408CF409241
:1019D0000002509201026092020270920302809112
:1019E000880381608093880307C041E0C301B2018E
:1019F0005ED8882309F4F3CED501F701E656FC4FF3
:101A00009F01280D391D2E173F0719F08D918193E5
:101A1000FACFA80CB91C62CFF80183899489A589F3
:101A2000B68984179507A607B70738F4438B548BFC
:101A3000658B768B848180688483F801848183FD43
:101A400002C0C10106C0C80148DC882309F4C7CE22
:101A5000F8CF0F900F900F900F90DF91CF911F91C3
:101A60000F91FF90EF90DF90CF90BF90AF909F903D
:101A70008F907F906F905F904F903F902F90089540
:101A8000CF93DF931F92CDB7DEB7698341E050E07B
:101A9000BE016F5F7F4F6CDE0F90DF91CF91089595
:101AA000CF93DF93EC01898D9A8D009739F481E013
:101AB00090E09B838A8380E090E00AC0FC0113825F
:101AC000128256DEE98DFA8D22813381232B79F73C
:101AD000DF91CF910895FC01DB0112968D919C91CD
:101AE00013979383828384E492E091838083149696
:101AF0008C911497848315968C91159785831696EF
:101B00004D915D916D917C911997468357836087C4
:101B100071871A964D915D916D917C911D974287C9
:101B20005387648775871E964D915D916D917C9169
:101B3000519746875787608B718B52968C9152973D
:101B4000828B53964D915D916D917C915697438B0D
:101B5000548B658B768B57964D915D916D917C91F1
:101B60005A97478B508F618F728F5B968D919C91A6
:101B70005C97948F838F0895FC01538D448D252F9E
:101B800030E0842F90E0821B930B541710F0CF9617
:101B9000089501970895FC01918D828D981761F049
:101BA000828DDF01A80FB11D5D968C91928D9F5F94
:101BB0009F73928F90E008958FEF9FEF08958AE9C9
:101BC00095E00E94510121E0892B09F420E0822F49
:101BD0000895EF92FF920F931F93CF93DF93EC0141
:101BE00081E0888F9B8D8C8D981305C0E889F989D9
:101BF000808185FD26C0F62E0B8D10E00F5F1F4FF4
:101C00000F731127E02E8C8DE8120CC00FB607FC65
:101C1000FACFE889F989808185FFF5CFCE010E944E
:101C20005D02F1CF8B8DFE01E80FF11DE35AFF4FEE
:101C3000F0829FB7F8940B8FEA89FB8980818062DC
:101C40000AC09FB7F894EE89FF896083E889F98913
:101C500080818370806480839FBF81E090E0DF910A
:101C6000CF911F910F91FF90EF900895CF93DF9345
:101C7000EC01888D8823C9F0EA89FB89808185FD84
:101C800005C0A889B9898C9186FD0FC00FB607FCE5
:101C9000F5CF808185FFF2CFA889B9898C9185FF26
:101CA000EDCFCE010E945D02E7CFDF91CF91089585
:101CB0001F920F920FB60F9211240BB60F922F9313
:101CC0003F934F935F936F937F938F939F93AF93C4
:101CD000BF93EF93FF938AE995E00E945D02FF9125
:101CE000EF91BF91AF919F918F917F916F915F9194
:101CF0004F913F912F910F900BBE0F900FBE0F9001
:101D00001F9018951F920F920FB60F9211240BB6C9
:101D10000F922F938F939F93EF93FF93E091AA05D8
:101D2000F091AB058081E091B005F091B10582FDA5
:101D300012C090818091B3058F5F8F732091B4059D
:101D4000821751F0E091B305F0E0E656FA4F958F17
:101D50008093B30501C08081FF91EF919F918F9196
:101D60002F910F900BBE0F900FBE0F901F901895E4
:101D7000EAE9F5E0A089B18982E08C93A485B58574
:101D80001C92A685B7858FEC8C93108EA489B5899B
:101D900086E08C93A289B3898C9180618C93A2890F
:101DA000B3898C9188608C93A289B3898C91806867
:101DB0008C930288F389E02D80818F7D8083089544
:101DC000CF93DF93EC016E857F858889998941E007
:101DD0000E945705882341F08A8920E2829FC00132
:101DE000112486569C4F02C080E090E0DF91CF9195
:101DF00008958F929F92AF92BF92CF92DF92EF920F
:101E0000FF920F931F93CF93DF9300D01F92CDB714
:101E1000DEB7FC018581813079F5948191FF2CC07A
:101E20004389548965897689452B462B472B09F4CC
:101E30005BC07F0140E050E0BA01CF010E94C006C4
:101E40008823D1F0F7018788908CA18CB28CC38C49
:101E5000D48C82E090E0A0E0B0E0F6018083918332
:101E6000A283B3839E012F5F3F4FB501A401C6013A
:101E70000E943E06811102C080E036C000E010E002
:101E80009801B501A401C6010E949E058823A1F313
:101E900089809A80AB80BC80F6018789803129F0E7
:101EA00088EF9FEFAFEFBFE004C088EF9FEFA0E0A7
:101EB000B0E088169906AA06BB06A0F2F701178AB9
:101EC000108E118E128E138A148A158A168A8481B6
:101ED00080688483C70101DA882371F240E050E012
:101EE000BA01C7010E94C0060F900F900F900F908B
:101EF000DF91CF911F910F91FF90EF90DF90CF90E6
:101F0000BF90AF909F908F9008954F925F926F9285
:101F10007F92AF92BF92CF92DF92EF92FF920F9398
:101F20001F93CF93DF9300D01F92CDB7DEB78C0104
:101F300049835A836B837C835901C12CD12C760150
:101F4000412C82E0582E612C712C49815A816B8181
:101F50007C819E012F5F3F4FC8010E943E0688236F
:101F600051F1D301C201F801058404C0880F991F03
:101F7000AA1FBB1F0A94D2F7C80ED91EEA1EFB1E69
:101F800049815A816B817C818789803129F088EF72
:101F90009FEFAFEFBFE004C088EF9FEFA0E0B0E09D
:101FA000481759076A077B0780F2F501C082D18282
:101FB000E282F38281E00F900F900F900F90DF91FB
:101FC000CF911F910F91FF90EF90DF90CF90BF9036
:101FD000AF907F906F905F904F9008957F928F9217
:101FE0009F92AF92BF92CF92DF92EF92FF920F93A8
:101FF0001F93CF93DF93CDB7DEB7C754D1090FB688
:10200000F894DEBF0FBECDBF5C0119A218A284E414
:1020100092E09F8F8E8F1BA21C821B829A838983E2
:102020001E82812C912C7E018EE1E80EF11C09EAC2
:1020300016E0C401F401E658FC4F20812F3209F468
:102040000196DC01A658BC4FFE01FB9620E030E073
:102050006F014D914F3249F0442339F02F5F3F4FCC
:10206000019641932C303105A1F7F601E20FF31FE1
:102070001082FC01E658FC4F20812F3209F40196B2
:102080004C01FC01E658FC4F708041E0711040E0CB
:1020900020E030E0B601C801F5011995811108C0B2
:1020A000F6E0093A1F0711F0C80142D980E024C0C8
:1020B0007720A1F021E0A601B801C7014BD9D82EA5
:1020C00086E0093A180791F0C80132D9DD2071F392
:1020D000902F812F8701E92EF82EABCFE6E0093A49
:1020E0001E0711F0C80124D981E006C0DD20F1F2FD
:1020F0008E010F5F1F4FECCFC95BDF4F0FB6F89417
:10210000DEBF0FBECDBFDF91CF911F910F91FF902A
:10211000EF90DF90CF90BF90AF909F908F907F9087
:102120000895CF93DF93BC018AE995E010D3EC01C9
:1021300067E672E08AE995E00AD38C0F9D1FDF9174
:10214000CF910895CF93DF93FC012581222311F0D5
:1021500080E048C0EC018091A2068031C1F482E0A9
:102160008583178A108E118E128E8091A30690910E
:10217000A406A0E0B0E025E0880F991FAA1FBB1FAE
:102180002A95D1F7838B948BA58BB68B18C08032A0
:10219000F9F683E085834091A5065091A6066091EB
:1021A000A7067091A806478B508F618F728F9F0191
:1021B0002D5E3F4F8BE896E0A8DE882349F28BE83E
:1021C00096E09C8F8B8F81E08C831E821F82188605
:1021D00019861A861B861C861D861E861F86188AEF
:1021E000198A1A8ADF91CF9108958F929F92AF92A8
:1021F000BF92CF92DF92EF92FF92CF93DF93C82FDF
:102200008FE796E09093990380939803CC2369F12C
:10221000C53010F080E00BC140E060E070E0CB0121
:102220000E9457058823B1F320E1C29FC001112409
:1022300086579C4FFC01E254FE4F20812F7751F7C7
:102240003C9640815181628173814436510561051C
:10225000710500F33497C080D180E280F380C1140F
:10226000D104E104F10421F4D5CFC12CD12C7601A5
:1022700040E0C701B6010E945705882359F28091BA
:10228000A5039091A6038115924021F6A091AA037F
:10229000AA2309F4BFCF6091A8037091A903611527
:1022A000710509F4B7CF2091A703222309F4B2CF17
:1022B000A0939D0620938F0680E030E041E050E03F
:1022C000C82FFA01082E02C0EE0FFF1F0A94E2F792
:1022D0002E173F0739F08F5FC83091F789E0809360
:1022E000980698CF809398062091B0033091B1035F
:1022F0002115310519F040E050E008C02091BE03DF
:102300003091BF034091C0035091C10320939006C8
:1023100030939106409392065093930646015701DD
:10232000860E971EA11CB11C80929E0690929F065D
:10233000A092A006B092A106E091AB03F091AC038D
:10234000F093A406E093A306B0E039D5860E971E5D
:10235000A81EB91E8092A5069092A606A092A70676
:10236000B092A80685E0EE0FFF1F8A95E1F7E150D5
:10237000FE4FEF2FFF27E6958E0E9F1EA11CB11C6E
:102380008092990690929A06A0929B06B0929C0623
:102390002091AD033091AE032115310521F0A90143
:1023A00060E070E008C04091BA035091BB036091B7
:1023B000BC037091BD03D701C60188199909AA0908
:1023C000BB09840F951FA61FB71F04C0B695A7951C
:1023D00097958795CA95D2F7809394069093950622
:1023E000A0939606B0939706853F2FE09207A1052C
:1023F000B10510F48CE018C0853F9F4FA105B105D1
:1024000010F480E111C08091C6039091C703A091A0
:10241000C803B091C9038093A5069093A606A09324
:10242000A706B093A80680E28093A20681E0DF9120
:10243000CF91FF90EF90DF90CF90BF90AF909F90A3
:102440008F90089590E0FC01E852FE4F2491FC012A
:10245000EE56FE4F8491882399F090E0880F991FE3
:10246000FC01E858FE4FA591B491FC01E25AFE4FE1
:10247000859194918FB7F894EC91E22BEC938FBFF8
:102480000895FC01818D928D009729F00E94C0066D
:1024900091E0811101C090E0892F0895EF92FF92A1
:1024A0000F931F93CF93DF936115710511F480E0B3
:1024B0001DC0FB0101900020E9F73197E61BF70BE7
:1024C000A1F07B01EC010C811D810E0F1F1FB801D3
:1024D000DCD0882361F3288139818C819D81B7010B
:1024E000820F931FA8D61D830C8381E0DF91CF91CB
:1024F0001F910F91FF90EF900895EF92FF920F932D
:102500001F93CF93DF93EC017B018A011B821A8218
:1025100088EE93E0A0E0B0E08C839D83AE83BF8320
:102520008EE092E0998388838DE190E069D49A8F60
:10253000898F009771F02DE1F701DC0101900D9278
:102540002A95E1F74CE050E0B801CE010C967AD61E
:10255000188EDF91CF911F910F91FF90EF9008950A
:10256000CF92DF92EF92FF920F931F93CF93DF935F
:102570006C017A018B01C0E0D0E0CE15DF0581F05F
:10258000D8016D918D01D601ED91FC910190F08102
:10259000E02DC6011995892B11F02196EECF7E0111
:1025A000C701DF91CF911F910F91FF90EF90DF90C6
:1025B000CF900895EF92FF920F931F93CF93DF93E5
:1025C000CDB7DEB7C755D1090FB6F894DEBF0FBE41
:1025D000CDBF8C011C821B8284E4E82E82E0F82EA1
:1025E000FA82E9821E82CE010196ACDDBE016F5FE8
:1025F0007F4FCE01CB966FDA19A218A2FF8EEE8E16
:102600001BA221968FAD2197811113C0F80113826F
:10261000128288EE93E0A0E0B0E084839583A683E5
:10262000B7838EE092E091838083128E118E1486A0
:102630001DC021E04AE753E0BE01655C7F4FCE013B
:102640004E960E94AA09882309F3CE01CB960E94D8
:102650009809BE01625E7F4FCE0101963CDA4AE7DF
:1026600053E0BE016F5F7F4FC80147DFC801C95A01
:10267000DF4F0FB6F894DEBF0FBECDBFDF91CF9115
:102680001F910F91FF90EF9008950F931F93CF9399
:10269000DF93EC0188819981009729F02A813B81A1
:1026A0002617370780F48B016F5F7F4FCAD40097DE
:1026B00061F0998388831B830A832C813D81232BBE
:1026C00011F4FC01108281E001C080E0DF91CF9124
:1026D0001F910F910895EF92FF920F931F93CF9345
:1026E000DF93EC017B018A01BA01CFDF28813981B8
:1026F00081110CC02115310511F0C90119D41982BD
:1027000018821D821C821B821A8205C01D830C83C5
:10271000B701C90190D5CE01DF91CF911F910F91E3
:10272000FF90EF900895FC011182108213821282B3
:10273000158214826115710549F0FB01019000209A
:10274000E9F73197AF01461B570BC5CF08956115C7
:10275000710579F0FB0101900020E9F73197AF0195
:10276000461B570BDC01ED91FC910280F381E02DBB
:10277000199480E090E008950F931F93CF93DF9317
:10278000EC01FB014481558160817181E881F9810F
:102790000280F381E02D19958C0167E672E0CE018D
:1027A000D6DF800F911FDF91CF911F910F91089578
:1027B0008091C8069091C906BBD38091CE069091B6
:1027C000CF06B6D38091D4069091D506B1C3CF93EE
:1027D000DF93CDB7DEB7EC970FB6F894DEBF0FBE30
:1027E000CDBF789484B5826084BD84B5816084BD9A
:1027F00085B5826085BD85B5816085BD80916E009F
:10280000816080936E0010928100809181008260CF
:10281000809381008091810081608093810080910C
:1028200080008160809380008091B10084608093FB
:10283000B1008091B00081608093B00080919100E0
:1028400082608093910080919100816080939100DB
:10285000809190008160809390008091A1008260BF
:102860008093A1008091A10081608093A10080915C
:10287000A00081608093A0008091210182608093FC
:1028800021018091210181608093210180912001AB
:1028900081608093200180917A00846080937A0027
:1028A00080917A00826080937A0080917A008160C2
:1028B00080937A0080917A00806880937A001092E9
:1028C000C1001092790610927A0610927B0610923F
:1028D0007C061092390610923A0610923B0610922E
:1028E0003C060E9435036B017C014B015C0188EBC7
:1028F000880E8BE0981EA11CB11C0E9435036C153C
:102900007D058E059F0528F086169706A806B90650
:10291000A0F760ED77E080E090E00E94FD0228DA09
:102920000E9435036093390670933A0680933B0604
:1029300090933C0668E572E08AE995E008DF0E9422
:1029400035036B017C014B015C018AE0880E911C10
:10295000A11CB11C0E9435036C157D058E059F05D9
:1029600028F086169706A806B906A0F781E080939E
:102970004D06FED98AE692E0D4DB8091AE0688232C
:1029800021F089EA96E00E94980910928A06109236
:102990008806109285061092840685E3809383064C
:1029A0000E9435038B01809183064CDD61E08091AC
:1029B00083060E947F02FFB6F894809196038111EE
:1029C00021C0E7ECF1E08491EDE0F2E09491E82F92
:1029D000F0E0EE0FFF1FE858FE4FA591B491EC9187
:1029E000E92321F461E085E30E947F0285E32ADD8B
:1029F0008CB580618CBD8CB580648CBD84E322DD98
:102A000083E320DD809196038F5F80939603FFBE62
:102A100082E580937D0610927E0680917D069091DE
:102A20007E060E94D4032AE0F22E8FEF0E949B03C1
:102A3000FA94F110FACF8FE796E00E94D70320E0D6
:102A400030E0A90160E08FE796E00E94EB03F82EEA
:102A50008093890681E0F81649F00E943503601BD7
:102A6000710B613D774058F381E056C02AEA31E0AE
:102A700040E050E068E08FE796E00E94EB0382FFC1
:102A800003C0F0928A0610C094E0F92E0E94A203BF
:102A900080938906FA94F110F9CF8A3A11F082E016
:102AA0003BC082E080938A0680918A06823021F0C2
:102AB000C12CD12C760105C0C12CD12CE12C80E495
:102AC000F82E20E030E0A90167E38FE796E00E944E
:102AD000EB03A701960169E28FE796E00E94EB0302
:102AE00080938906882349F00E943503601B710B8F
:102AF000613D774030F388E00FC080918A068230D4
:102B000001F520E030E0A9016AE38FE796E00E943A
:102B1000EB03882341F086E0809384068FE796E0FC
:102B20000E94910325C00E94A203807C803C19F47E
:102B300083E080938A060E94A2030E94A2030E945F
:102B4000A2038FE796E00E94910380E580937D06C3
:102B500010927E0681E049DB882331F089EA96E015
:102B6000F1DA882329F008C080E03FDB8111F6CF3D
:102B700089E992E0D6DAFFCF8EED92E0D2DA81E5F4
:102B80009BE02CDA882319F08CE79BE027DA11E030
:102B9000CE014C960FDDCE0101960CDD69E672E0A8
:102BA000CE01C796C0DD80919703882331F1EA8D6D
:102BB000FB8D309729F0438954896589768903C054
:102BC00040E050E0BA014350510961097109CE015A
:102BD000019657DC882309F458C0CE0101960E9463
:102BE0003C098B35910509F050C08DE593E099DAE9
:102BF00041E050E068E773E076C048E350E062E10E
:102C000073E0CE01C79667DD6BE473E0CE01C79633
:102C100045DC10939703EDA9FEA9309701F185815A
:102C20008823E9F04389548965897689445051099C
:102C300061097109CE014C9624DCBE01695C7F4FAD
:102C4000CE014C9699DD8DA99EA9009791F00E9426
:102C500098098DA99EA96CD11EAA1DAA0AC06EE46E
:102C600073E08AE995E073DD68EC76E08AE995E047
:102C700083DD64EC79E080E090E00E94FD028FA9A2
:102C800098AD56D10E945D0183CFEA8DFB8D3097C0
:102C900029F0438954896589768903C040E050E072
:102CA000BA014350510961097109CE010196E9DB6E
:102CB000882339F0CE0101960E943C098D37910599
:102CC00059F06EEF72E0CE01C796E8DB6CE473E07A
:102CD000CE01C796E3DB9FCF8BE693E022DA42E09A
:102CE00050E067E773E0CE01C796F5DCEACFEAE98A
:102CF000F5E01382128288EE93E0A0E0B0E08483D6
:102D00009583A683B78382E392E09183808385ECE9
:102D100090E09587848784EC90E09787868780ECA5
:102D200090E0918B808B81EC90E0938B828B82EC96
:102D300090E0958B848B86EC90E0978B868B118E40
:102D4000128E138E148EE7E3F6E016821782108639
:102D50001186128613861486158616861786108AA3
:102D6000118A128A138A148A158AEDE7F6E080E543
:102D700080831182EFE7F6E01582168211861386B2
:102D800082E090E0A0E0B0E084879587A687B787CF
:102D900013A215A614A684E492E093A782A717A60F
:102DA00069E672E084ED96E0BEDC69E672E08EECE6
:102DB00096E0B9DC6AE773E088EC96E0B4CC09D021
:102DC000A59F900DB49F900DA49F800D911D11247F
:102DD0000895A29FB001B39FC001A39F700D811DF4
:102DE0001124911DB29F700D811D1124911D089514
:102DF000EE0FFF1F881F8BBF0790F691E02D1994EF
:102E00000F931F93CF93DF938230910510F482E0EC
:102E100090E0E091DC06F091DD0620E030E0A0E0FB
:102E2000B0E0309719F14081518102811381481738
:102E30005907C8F08417950769F4109731F0129676
:102E40000C93129713961C9327C00093DC061093E3
:102E5000DD0622C02115310519F04217530718F479
:102E60009A01BD01EF01DF01F801DBCF211531052A
:102E7000F9F0281B390B2430310580F48A819B81BD
:102E80006115710521F0FB019383828304C0909347
:102E9000DD068093DC06FE01329644C0FE01E20F9F
:102EA000F31F8193919322503109398328833AC0CB
:102EB0002091DA063091DB06232B41F420910602A3
:102EC000309107023093DB062093DA06209104024A
:102ED000309105022115310541F42DB73EB74091DF
:102EE000080250910902241B350BE091DA06F0919B
:102EF000DB06E217F307A0F42E1B3F0B2817390758
:102F000078F0AC014E5F5F4F2417350748F04E0F45
:102F10005F1F5093DB064093DA068193919302C0C2
:102F2000E0E0F0E0CF01DF91CF911F910F91089584
:102F3000CF93DF93009709F481C0FC01329713828D
:102F40001282A091DC06B091DD06109781F42081F9
:102F50003181820F931F2091DA063091DB0628170A
:102F6000390751F5F093DB06E093DA0667C0ED010F
:102F700020E030E0CE17DF0740F44A815B819E01FC
:102F800041155105F1F0EA01F5CFD383C2834081A9
:102F90005181840F951FC817D90759F488819981E9
:102FA000840F951F0296918380838A819B819383EE
:102FB00082832115310529F4F093DD06E093DC06C8
:102FC0003DC0E901FB83EA8349915991C40FD51FA4
:102FD000EC17FD0761F480819181840F951F0296A3
:102FE000E90199838883828193819B838A83E0E0CE
:102FF000F0E012968D919C911397009719F0FD01C6
:10300000DC01F7CF8D919C9111979D012E5F3F4F71
:10301000820F931F2091DA063091DB0628173907BB
:1030200069F4309729F41092DD061092DC0602C094
:1030300013821282B093DB06A093DA06DF91CF9160
:1030400008956F927F928F929F92AF92BF92CF928C
:10305000DF92EF92FF920F931F93CF93DF9300972E
:1030600081F4CB01DF91CF911F910F91FF90EF90F1
:10307000DF90CF90BF90AF909F908F907F906F9098
:10308000BFCEFC01E60FF71F9C0122503109E21769
:10309000F30708F4A5C0EC01D9010D911C9111971B
:1030A00006171707A8F00530110508F497C0C801E6
:1030B00004978617970708F491C002501109061B60
:1030C000170B019311936D937C93CF0131DF86C071
:1030D0005B01A01AB10A4C01800E911EA091DC0682
:1030E000B091DD06612C712CE12CF12C109709F4C4
:1030F00046C08D919C911197A815B905B1F56C0149
:1031000042E0C40ED11CCA14DB0478F14C018A18C9
:103110009B08640142E0C40ED11C1296BC90129729
:103120001396AC91B5E0CB16D10440F0B282A383E4
:1031300091828082D9016D937C9309C00E5F1F4FED
:10314000800F911FF90191838083EB2DFA2FE114F9
:10315000F10431F0D7011396FC93EE9312973EC021
:10316000F093DD06E093DC0639C06816790608F4B2
:103170003C017D0112960D90BC91A02DB7CF80919E
:10318000DA069091DB0688169906E1F46616770652
:10319000C8F48091040290910502009741F48DB724
:1031A0009EB74091080250910902841B950BE817C5
:1031B000F907B0F4F093DB06E093DA06F9017183C6
:1031C00060830CC0CB011CDE7C01009749F0A80194
:1031D000BE0128D0CE01ACDEC70104C0CE0102C0C2
:1031E00080E090E0DF91CF911F910F91FF90EF90E1
:1031F000DF90CF90BF90AF909F908F907F906F9017
:10320000089581E090E0F8942CC0FB01DC0104C03B
:103210008D910190801921F441505040C8F7881BCE
:10322000990B0895FB01DC0102C001900D92415001
:103230005040D8F70895FB01DC0101900D92002069
:10324000E1F70895FB01DC014150504048F0019046
:103250000D920020C9F701C01D9241505040E0F787
:10326000089511E0C0E1D1E000E005C0802FFE012B
:10327000BFDD2196011DC131D10780E00807B1F7FC
:04328000F894FFCFF0
:10328400FFFFFFFF0000DE06800000000000DC01FD
:10329400500DF301A309BB013C09450900000000DE
:1032A400F601B012F301F201F601F601F601000095
:1032B4000000E90DB012BC0D360E5101CB0D4301D7
:1032C40000000000400DB012F301F2010000000004
:1032D400F601B012F301F201564D4450565F317CB1
:1032E400315F564D4450560D0A00496E6963696159
:1032F4006C697A616E646F20636F72746578207094
:10330400726566726F6E74616C2065206869706F97
:1033140063616D706F2E2E2E0046616C6C69646F54
:103324002C20656C206365726562726F206E6F205D
:103334007075656465206D656D6F72697A61722060
:103344007920766120612073757370656E6465728F
:10335400206C61206F706F736963696F6E005075C4
:1033640065646F207265636F726461722E2E2E4DD8
:10337400415441522048554D414E4F532E00226432
:10338400617465223A2231372F30372F3230313988
:1033940022007B22646576696365223A2022746385
:1033A4002D3739333638222C2273746174757322A5
:1033B400203A203230302C2264746C22203A302C93
:1033C400226461746122203A205B005D7D00657295
:1033D400726F72206F70656E696E6720005072693B
:1033E4006D6572206F626A65746F006F74726F200E
:1033F4006F626A65746F002C7B00646174616C6F2A
:06340400672E74787400CD
:00000001FF
